:020000040000FA
:10000000F4EF04F0F76A140FF66E000EF722090001
:10001000F5501200280C0106F76A280FF66E000E44
:10002000F7220900F550120020200000EA6A280E8D
:10003000E96EEF500EE0010E016E006A002EFED751
:10004000012EFBD74A0E006E002EFED700D0EF2EF9
:10005000F2D7000C2F38F00B006E0F0E8114001039
:10006000816E0000818000D08190000CF00E936EB4
:10007000818400008180000081380F0B2F6E8190F9
:1000800000008180000081380F0B2E6E8190000EE1
:10009000936E2F38006EF00E001600502E10016E79
:1000A00054EF00F08192E2D701C02EF001BEFBD7E1
:1000B0002CA081922CB0818200008194000081905C
:1000C0002D382E6E0F0E2E162EC02FF0C3DF2D50A2
:1000D0000F0B2E6E2F6EBEDF000C000E936E819202
:1000E000819481900F0E286EA1DF010E1A6E1A50B6
:1000F000030808E3030E2F6EADDF050E286E96DFB2
:100100001A2AF5D7020E2F6EA5DF1A6A1A500308B5
:100110000EE3036A1A50F2CF1BF0F29E73DF1BBE90
:10012000F28E1C6E2C6A2D6EBDDF1A2AEFD7FEEF01
:1001300004F08E0E006E1BC001F01AC002F0036ABC
:10014000015209E102C001F0026A080E005E01528C
:1001500002E1006A08D0D89001BE04D00236013610
:100160000006F9D7019E000C2750D8B471D0006E5C
:100170002B50D8B46DD0002604E3810E002668E22F
:1001800004D07F0E005E64E363E028C02FF02C50A3
:100190002F1A288E2C8E2A502E02F4CF31F029509F
:1001A0002D02F4CF03F0F3CF30F02E02F3503126BE
:1001B000F4503022000E03222A502D02F350312633
:1001C000F4503022000E026A0322022228502E022E
:1001D000F3503026F4500322000E022228502D0244
:1001E000F3500326F4500222000E016A01222A5025
:1001F0002C02F3503026F4500322000E022201227A
:1002000029502C02F3500326F4500222000E012242
:1002100028502C02F3500226F4500122002A01BE7D
:1002200005D030360336023601360006000E30AEF9
:100230000AD0032A02220122015005E1025003E103
:10024000035001E1002A2FBE018E2FAE019E04D083
:10025000006A016A026A036A000C1E50D8B4A5D075
:100260002A6E2250D8B4A1D02A5E05E37F0E2A263A
:10027000D8B09BD006D0810E2A5ED8A096D0D8B434
:1002800094D02AC000F0016A026A036A296A1FC07A
:1002900028F0288E20C027F021C026F0190E2A6EE3
:1002A0002550265E0DE2010E275E0AE2285E08E276
:1002B000295E06E2292A282A272A2550262628D020
:1002C0002450275E12E2010E285E0FE2295E0DE245
:1002D000292A282A245027262550262619E3272AAA
:1002E00017E1282A15E1292A13D023508009285E16
:1002F0000EE2010E295E0BE2292A235080092826EE
:1003000024502726E9E3282AE7E1292AE5D70380B4
:100310002A2E01D00BD0D8902636273628362936FB
:10032000D8900336023601362B36BAD72BA006D02A
:10033000D8900132023203322B3202D0000635E06F
:100340002BBE1ED0D8902636273628362936255083
:10035000265E07E2010E275E04E2285E02E2295EC5
:100360001AE32450275E05E2010E285E02E2295EB0
:1003700012E323508009285E03E2010E295E0BE39D
:10038000032A09E1022A07E1012A05E1002A0DE01A
:100390000132023203321FC02AF023502A1A2AAE39
:1003A00002D0018E06D0019E04D0006A016A026A62
:1003B000036A000C292C01D003D0400E2A6E01D014
:1003C0002A6A010E285C2A262A5080092B6E2C6A84
:1003D0002D6E68DE000C27500C0A05E0060A0BE0C3
:1003E000020A0FE013D02C6A010E2D6E5BDE020EA6
:1003F000286E1CDE11D0010E286E020E296EDADF87
:100400000BD02C6A100E2D6E4DDE06D0010E2C6E18
:1004100027C02DF047DE00D0000C800ED8B22C1A79
:10042000316A326A28C030F02C50301A2750D8B4C4
:10043000DCD02F6E006E2B50D8B4E0D02F5ED8B435
:1004400081D03DE32CC035F0358E2DC034F02EC068
:1004500033F0326AD89035323432333232322F2E82
:10046000F8D730AE03D03180DDD031902F90318875
:10047000EA6A2A0EE96EE9D0319830BE0AD02FA080
:1004800013D03532343233323232002AD8B4C5D0A8
:100490000BD035BE0CD0D8903236333634363536A4
:1004A0000006D8B4BAD0F5D7318C6BD0319C28C0B7
:1004B00030F028AE02D0358EA9D0359EA7D02BC003
:1004C0002FF02BC000F027502F5E28C035F0358E5E
:1004D00029C034F02AC033F0326AD8903532343231
:1004E000333232322F2EF8D730AE03D031829AD049
:1004F00031922F90318AEA6A2E0EE96EA6D0319A97
:1005000030BE0AD02FA013D03532343233323232DB
:10051000002AD8B482D00BD035BE0CD0D890323659
:100520003336343635360006D8B477D0F5D7318E29
:1005300028D0319E2CC030F02CAE02D0358E66D043
:10054000359E64D02CC035F0358E2DC034F02EC0D1
:1005500033F030AE04D0359E318464D03194326AA9
:100560002F90EA6A2A0EE96E70D030BE1CD028C0E7
:1005700030F02FA006D03532343233323232002AF6
:100580004CE032AE0BD0332A09E1342A07E1352A98
:1005900005E1353234323332002A3FE031BC86D7B0
:1005A00031BEC7D71CD0800E351A35AE04D03AD034
:1005B0002CC030F00AD028C030F0355206E1345259
:1005C00004E1335202E1006A21D035BE08D0D89050
:1005D0003236333634363536002EF7D71ED030AEAD
:1005E00002D0358E13D0359E11D02BC000F02CC018
:1005F00035F02DC034F02EC033F008D027C000F005
:1006000028C035F029C034F02AC033F035C001F0DD
:1006100034C002F033C003F034D0006A016A026AC9
:10062000036A2FD0326A331E341E351E321E322A20
:1006300005E1332A03E1342A01E1352A31B015D727
:1006400031B256D731B48AD7B3D7EF50332605E34A
:10065000342A03E1352AD8B42F80ED52EF503426E6
:1006600003E3352AD8B42F80ED52EF50EFBE01D00E
:10067000800A3526D8B02F8031B8FED631BA3FD7A0
:1006800074D7D6EF03F02750B608276E036A28C048
:100690002BF0288ED890283229322A3203320232A7
:1006A00001320032272EF6D72BAE0BD0001E011ED2
:1006B000021E031E002AD8B4012AD8B4022AD8B4D4
:1006C000032AE7EF03F0006A016A026A036A2F6AED
:1006D000306A316A326A2E502D102C102B102CE00B
:1006E000200E336ED8902736283629362A362F36F4
:1006F0003036313632362E50325C08E12D50315CC6
:1007000005E12C50305C02E12B502F5C0FE32B50A5
:100710002F5E2C50D8A02C3C305E2D50D8A02D3C04
:10072000315E2E50D8A02E3C325ED8800036013685
:1007300002360336332ED6D7EA6A2F0EE96E000C46
:10074000E9501F6E1E50216E19E01DC02AF01CC01A
:1007500029F01BC028F01AC027F02E6A2D6A200E3F
:100760002C6E820E2B6E00DD03C01DF002C01CF04B
:1007700001C01BF000C01AF0212EE7D77E0E006EDC
:10078000016A1BBE018E026A036AD8921DC02AF05C
:100790001CC029F01BC028F01AC027F003C02EF09F
:1007A00002C02DF001C02CF02B6E37D603C01DF017
:1007B00002C01CF001C01BF000C01AF01DC02AF0DE
:1007C0001CC029F01BC028F01AC027F05CD703C05A
:1007D0001DF002C01CF001C01BF000C01AF01DAEDD
:1007E0000DD01F061F8A1A1E1B1E1C1E1D1E1A2A34
:1007F000D8B41B2AD8B41C2AD8B41D2A3B0E266EA6
:100800009A0E256ECA0E246E236A0A0E216E1E50A1
:10081000D8B41F2A1DC02AF01CC029F01BC028F024
:100820001AC027F026C02EF025C02DF024C02CF0D1
:1008300023C02BF048DF0150EFCF1AF0ECCF1BF0B4
:10084000ECCF1CF0ECCF1DF000520FE11E28215C14
:100850000CE01F500CE00F0B215C01E037E21FBEE3
:1008600035D01FBC04D0200E2DD0200E1F161FAA7D
:100870000CD01F9A1E50D8A41F0600501F6E2D0EBC
:10088000276EA9DD1F50006E1F6A1E50215C0AE111
:1008900000501F6E2E0E276E9EDD1F50006E200E24
:1008A0001F16000E300E1FAA0DD01F9A1E50D8A47E
:1008B0001F0600501F6E2D0E276E8DDD1F50006E1F
:1008C0001F6A300E002600C027F085DD26C02AF002
:1008D00025C029F024C028F023C027F02E6A2D6AF5
:1008E0002C6A0A0E2B6EEFDE03C026F002C025F044
:1008F00001C024F000C023F0212E8CD7000CEACFD9
:1009000022F0E9CF21F01BAE08D0218E21A8212AA8
:100910001A1E1B1E1A2AD8B41B2A1B38F0091D6E7A
:100920001D26E20F1E6E320F206E1B500F0B1E266F
:100930001E262026E90F1F6E1F261F261A380F0BB2
:100940001F2620261F362036201E20361A500F0B59
:1009500020261D36070E1C6E0A0E1F062026FDE3FC
:100960001E061F26FDE31D061E26FDE31C061D2692
:10097000FDE3EA6A1C0EE96E070E2114219CE906CC
:10098000211407E121B8E92A21B803D0200E006E16
:100990001CD0E926200EE95CD8B4218CEF50006E03
:1009A00008E121BC06D021B81BD021B602D0200E10
:1009B0000BD021AE06D02D0E006EED50219C219E55
:1009C00004D021862198300E0026EACF1BF0E9CF13
:1009D0001AF000C027F0FFDC1BC0EAFF1AC0E9FFD5
:1009E000EE5021ACD7D7000CF86AD09EEA6AE96ACB
:1009F000C180C182C184C1966DEF00F0C190C182F7
:100A0000C184C186C19CC28CC28EC18EC280000EC0
:100A1000016EC250C70B0110C26E100E006E002E88
:100A2000FED70000C284C2B4FED7C3CF06F0C4CF45
:100A300007F007C01BF006C01AF099EC00F02A6A14
:100A4000296A200E286E810E276E03C02EF002C088
:100A50002DF001C02CF000C02BF0B4EC00F000C071
:100A60001AF001C01BF002C01CF003C01DF003C04F
:100A700021F002C020F001C01FF000C01EF0256A66
:100A8000C00E246E7F0E236E880E226E2DEC01F0B8
:100A900003C00BF002C00AF001C009F000C008F06A
:100AA0000BC00FF00AC00EF009C00DF008C00CF02A
:100AB000080E016EC250C70B0110C26E100E006E00
:100AC000002EFED70000C284C2B4FED7C3CF10F000
:100AD000C4CF11F011C01BF010C01AF099EC00F057
:100AE0002A6A296A200E286E810E276E03C02EF016
:100AF00002C02DF001C02CF000C02BF0B4EC00F0CF
:100B000000C01AF001C01BF002C01CF003C01DF0B1
:100B100003C021F002C020F001C01FF000C01EF091
:100B2000256AC00E246E7F0E236E880E226E2DEC79
:100B300001F003C015F002C014F001C013F000C0B2
:100B400012F015C019F014C018F013C017F012C03D
:100B500016F0946A06C08BFF956A10C08CFF0A0ECF
:100B6000286E010E296E26DC580E276E34DC3D0EF1
:100B7000276E31DC200E276E2EDC890EE96E0FC049
:100B80001DF00EC01CF00DC01BF00CC01AF0020EC0
:100B90001E6ED6DD760E276E1EDC0A0E276E1BDC5F
:100BA0000D0E276E18DC0A0E286E020E296E02DC6E
:100BB000590E276E10DC3D0E276E0DDC200E276EC1
:100BC0000ADC890EE96E19C01DF018C01CF017C0B0
:100BD0001BF016C01AF0020E1E6EB2DD760E276EE6
:100BE000EBEC01F00A0E276EEBEC01F00D0E276E18
:100BF000EBEC01F0020E286E010E296EDAEC01F02A
:100C0000580E276EEBEC01F03D0E276EEBEC01F079
:100C1000200E276EEBEC01F0100EE96E07C01BF002
:100C200006C01AF06CDE1A6A1A500CEC00F00009CB
:100C300005E01A2A276EEBEC01F0F6D7020E286EBB
:100C4000296EDAEC01F0590E276EEBEC01F03D0E47
:100C5000276EEBEC01F0200E276EEBEC01F0100E8E
:100C6000E96E11C01BF010C01AF049DE1A6A1A5062
:100C70000CEC00F0000905E01A2A276EEBEC01F0FD
:0E0C8000F6D7C80E286E16EC00F0B8D60300AA
:020000040030CA
:0E00000000270E0E000181000FC00FE00F4020
:00000001FF
;PIC18F452
