:020000040000FA
:040000006FEF00F0AE
:08000800056ED8CF06F0E0CF31
:1000100007F00001E9CF0DF0EACF08F0E1CF09F0D9
:10002000E2CF0AF0D9CF0BF0DACF0CF0F3CF14F017
:10003000F4CF15F0FACF16F000C00FF001C010F0A9
:1000400002C011F003C012F004C013F09DAA2CEFFF
:1000500000F09EBA4FEF00F00FC000F010C001F0AA
:1000600011C002F012C003F013C004F00E8E0DC0D8
:10007000E9FF08C0EAFF09C0E1FF0AC0E2FF0BC0C8
:10008000D9FF0CC0DAFF14C0F3FF15C0F4FF16C08F
:10009000FAFF055007C0E0FF06C0D8FF10009EAA77
:1000A000FED7AECF18F022509EA8FED7AD6E9E9A16
:1000B0002CEF00F0EA6A250EE96EEF500EE0010E1B
:1000C000016E006A002EFED7012EFBD74A0E006E8D
:1000D000002EFED700D0EF2EF2D7B5EF00F0F86A71
:1000E000D09E0D8EEA6AE96A190EAF6EA60EAC6E4E
:1000F000900EAB6EC180C182C184C196196A1A6A22
:100100001B6A9D8AC00EF212182C02D007D006D0AE
:100110001850020802E131D001D0F3D79D8AC00EF9
:10012000F212C190C182C184C186C19CC28CC28EB0
:10013000C18EC280000E016EC250C70B0110C26E8C
:10014000100E006E002EFED70000C284C2B4FED78F
:10015000C3CF22F0C4CF23F022509EA8FED7AD6EAD
:10016000020E246EFA0E256EA5D7242EFBD718504A
:10017000640802E1C6D701D0D1D79D8AC00EF21221
:10018000000E0609CA6EF90ECB6E94948B940C0E79
:10019000BD6E18C0BEFF1850640802E1B2D701D08E
:0401A000ECD7030095
:020000040030CA
:0E00000000210E0E000181000FC00FE00F4026
:00000001FF
;PIC18F452
