:020000040000FA
:1000000029EF00F0EA6A0C0EE96EEF500EE0010EE7
:10001000016E006A002EFED7012EFBD74A0E006E3D
:10002000002EFED700D0EF2EF2D7000C150E0C5E7E
:100030000EE3EA6A0C0EE96EFC0EEF16D890EF3272
:10004000EF32EF5004E001D00000EF2EFDD736EF85
:1000500000F0F86AD09EEA6AE96AC180C182C18470
:10006000C196056AEC0E066E130E076E80A002D0D4
:1000700002D001D0FBD795948C94040E0C6EC2DF95
:1000800095948C84010E0C6EBDDF640E0C6ECED781
:0200900003006B
:020000040030CA
:0E00000000210E0E000181000FC00FE00F4026
:00000001FF
;PIC18F452
