:020000040000FA
:10000000B4EF02F08E0E006E1FC001F01EC002F0B1
:10001000036A015209E102C001F0026A080E005EA3
:10002000015202E1006A08D0D89001BE04D0023625
:1000300001360006F9D7019E000C1E50D8B471D0CD
:10004000006E2250D8B46DD0002604E3810E002645
:1000500068E204D07F0E005E64E363E01FC026F018
:100060002350261A1F8E238E21502502F4CF28F00C
:1000700020502402F4CF03F0F3CF27F02502F350F1
:100080002826F4502722000E032221502402F35088
:100090002826F4502722000E026A032202221F5053
:1000A0002502F3502726F4500322000E02221F508F
:1000B0002402F3500326F4500222000E016A0122AA
:1000C00021502302F3502726F4500322000E02226F
:1000D000012220502302F3500326F4500222000E86
:1000E00001221F502302F3500226F4500122002A5D
:1000F00001BE05D027360336023601360006000E53
:1001000027AE0AD0032A02220122015005E1025043
:1001100003E1035001E1002A26BE018E26AE019EB6
:1001200004D0006A016A026A036A000C2250D8B443
:10013000A5D02E6E2650D8B4A1D02E5E05E37F0E3A
:100140002E26D8B09BD006D0810E2E5ED8A096D099
:10015000D8B494D02EC000F0016A026A036A2D6AF6
:1001600023C02CF02C8E24C02BF025C02AF0190EB1
:100170002E6E29502A5E0DE2010E2B5E0AE22C5EE5
:1001800008E22D5E06E22D2A2C2A2B2A29502A2647
:1001900028D028502B5E12E2010E2C5E0FE22D5E5D
:1001A0000DE22D2A2C2A28502B2629502A2619E325
:1001B0002B2A17E12C2A15E12D2A13D0275080096C
:1001C0002C5E0EE2010E2D5E0BE22D2A27508009D7
:1001D0002C2628502B26E9E32C2AE7E12D2AE5D707
:1001E00003802E2E01D00BD0D8902A362B362C36F9
:1001F0002D36D8900336023601362F36BAD72FA0C7
:1002000006D0D8900132023203322F3202D00006DB
:1002100035E02FBE1ED0D8902A362B362C362D3600
:1002200029502A5E07E2010E2B5E04E22C5E02E2F8
:100230002D5E1AE328502B5E05E2010E2C5E02E2D1
:100240002D5E12E3275080092C5E03E2010E2D5E25
:100250000BE3032A09E1022A07E1012A05E1002A4A
:100260000DE001320232033223C02EF027502E1A45
:100270002EAE02D0018E06D0019E04D0006A016A23
:10028000026A036A000C800ED8B2231A286A296A0F
:100290001FC027F02350271A1E50D8B4DCD0266E7A
:1002A000006E2250D8B4E0D0265ED8B481D03DE3B1
:1002B00023C02CF02C8E24C02BF025C02AF0296AF4
:1002C000D8902C322B322A322932262EF8D727AE5C
:1002D00003D02880DDD0289026902888EA6A210E55
:1002E000E96EE9D0289827BE0AD026A013D02C3278
:1002F0002B322A322932002AD8B4C5D00BD02CBEDA
:100300000CD0D89029362A362B362C360006D8B495
:10031000BAD0F5D7288C6BD0289C1FC027F01FAE11
:1003200002D02C8EA9D02C9EA7D022C026F022C0AD
:1003300000F01E50265E1FC02CF02C8E20C02BF02B
:1003400021C02AF0296AD8902C322B322A32293245
:10035000262EF8D727AE03D028829AD0289226904E
:10036000288AEA6A250EE96EA6D0289A27BE0AD006
:1003700026A013D02C322B322A322932002AD8B4AC
:1003800082D00BD02CBE0CD0D89029362A362B36F2
:100390002C360006D8B477D0F5D7288E28D0289EE2
:1003A00023C027F023AE02D02C8E66D02C9E64D0C2
:1003B00023C02CF02C8E24C02BF025C02AF027AEB1
:1003C00004D02C9E288464D02894296A2690EA6A56
:1003D000210EE96E70D027BE1CD01FC027F026A0CA
:1003E00006D02C322B322A322932002A4CE029AE98
:1003F0000BD02A2A09E12B2A07E12C2A05E12C320D
:100400002B322A32002A3FE028BC86D728BEC7D725
:100410001CD0800E2C1A2CAE04D03AD023C027F06A
:100420000AD01FC027F02C5206E12B5204E12A52B9
:1004300002E1006A21D02CBE08D0D89029362A3695
:100440002B362C36002EF7D71ED027AE02D02C8E9E
:1004500013D02C9E11D022C000F023C02CF024C059
:100460002BF025C02AF008D01EC000F01FC02CF0D1
:1004700020C02BF021C02AF02CC001F02BC002F0CC
:100480002AC003F034D0006A016A026A036A2FD0DE
:10049000296A2A1E2B1E2C1E291E292A05E12A2A1A
:1004A00003E12B2A01E12C2A28B015D728B256D710
:1004B00028B48AD7B3D7EF502A2605E32B2A03E1C5
:1004C0002C2AD8B42680ED52EF502B2603E32C2A99
:1004D000D8B42680ED52EF50EFBE01D0800A2C2612
:1004E000D8B0268028B8FED628BA3FD774D773EF85
:1004F00003F01FC026F02350261A26AE05D0D8944C
:10050000D8901FBED8802FD01FC026F022C027F061
:100510001E50275E06E026AE26D0D850010AD86EBF
:1005200022D023C027F01F50275E06E026AE1BD046
:10053000D850010AD86E17D024C027F02050275E6B
:1005400006E026AE10D0D850010AD86E0CD025C0D7
:1005500027F02150275E06E026AE05D0D850010ACC
:10056000D86E01D0D890000CF86AD09EEA6AE96A89
:10057000C180C182C184C196C190C182C184C1863B
:10058000C19CC28CC28EC18EC280000E016EC25050
:10059000C70B0110C26E100E006E002EFED70000B9
:1005A000C284C2B4FED7C3CF06F0C4CF07F007C0E1
:1005B0001FF006C01EF026DD216A206A200E1F6E85
:1005C000810E1E6E03C025F002C024F001C023F08E
:1005D00000C022F032DD00C01EF001C01FF002C0DA
:1005E00020F003C021F003C025F002C024F001C0B8
:1005F00023F000C022F0296AC00E286E7F0E276EFD
:10060000880E266E93DD03C00BF002C00AF001C015
:1006100009F000C008F00BC00FF00AC00EF009C0CE
:100620000DF008C00CF0080E016EC250C70B01108F
:10063000C26E100E006E002EFED70000C284C2B43F
:10064000FED7C3CF14F0C4CF15F015C01FF014C0EF
:100650001EF0D8DC216A206A200E1F6E810E1E6EED
:1006600003C025F002C024F001C023F000C022F036
:10067000E4DC00C01EF001C01FF002C020F003C087
:1006800021F003C025F002C024F001C023F000C017
:1006900022F0296AC00E286E7F0E276E880E266E05
:1006A00045DD03C019F002C018F001C017F000C00A
:1006B00016F019C01DF018C01CF017C01BF016C0B2
:1006C0001AF0D8921DC021F01CC020F01BC01FF0F2
:1006D0001AC01EF00FC025F00EC024F00DC023F08C
:1006E0000CC022F0D0D503C013F002C012F001C03C
:1006F00011F000C010F0216A206A1F6A810E1E6E80
:100700001DC025F01CC024F01BC023F01AC022F02D
:10071000F0DE0AE394928B8294988B98949E8B9E41
:1007200094948B9433D07ED0216A206A1F6A800E05
:100730001E6E1DC025F01CC024F01BC023F01AC083
:1007400022F0D7DE0AE394988B8894928B92949E41
:100750008B9E94948B941AD065D01DC021F01CC040
:1007600020F01BC01FF01AC01EF0256A246A236AFD
:10077000800E226EBEDE0AE3949E8B8E94988B9838
:1007800094928B9294948B9401D04CD0216A206ADD
:100790001F6A810E1E6E0FC025F00EC024F00DC022
:1007A00023F00CC022F0A5DE0AE3949A8B8A949879
:1007B0008B9894968B9694948B94DED633D0216A42
:1007C000206A1F6A800E1E6E0FC025F00EC024F036
:1007D0000DC023F00CC022F08CDE0AE394988B88C5
:1007E00094968B96949A8B9A94948B94C5D61AD09F
:1007F0000FC021F00EC020F00DC01FF00CC01EF085
:10080000256A246A236A800E226E73DE0AE39496B8
:100810008B8694988B98949A8B9A94948B94ACD65C
:0608200001D0AAD603007E
:020000040030CA
:0E00000000210E0E000181000FC00FE00F4026
:00000001FF
;PIC18F452
