:020000040000FA
:1000000044EF01F00F50D8B471D0006E1350D8B443
:100010006DD0002604E3810E002668E204D07F0E36
:10002000005E64E363E010C017F01450171A108EDE
:10003000148E12501602F4CF19F011501502F4CF9D
:1000400003F0F3CF18F01602F3501926F4501822DB
:10005000000E032212501502F3501926F4501822F4
:10006000000E026A0322022210501602F3501826D4
:10007000F4500322000E022210501502F350032602
:10008000F4500222000E016A012212501402F350B1
:100090001826F4500322000E0222012211501402ED
:1000A000F3500326F4500222000E012210501402D5
:1000B000F3500226F4500122002A01BE05D0183662
:1000C0000336023601360006000E18AE0AD0032AA7
:1000D00002220122015005E1025003E1035001E137
:1000E000002A17BE018E17AE019E04D0006A016A75
:1000F000026A036A000C1350D8B4A5D01F6E1750C3
:10010000D8B4A1D01F5E05E37F0E1F26D8B09BD0C8
:1001100006D0810E1F5ED8A096D0D8B494D01FC050
:1001200000F0016A026A036A1E6A14C01DF01D8E87
:1001300015C01CF016C01BF0190E1F6E1A501B5E66
:100140000DE2010E1C5E0AE21D5E08E21E5E06E282
:100150001E2A1D2A1C2A1A501B2628D019501C5E44
:1001600012E2010E1D5E0FE21E5E0DE21E2A1D2A26
:1001700019501C261A501B2619E31C2A17E11D2AA8
:1001800015E11E2A13D0185080091D5E0EE2010EE3
:100190001E5E0BE21E2A185080091D2619501C26CF
:1001A000E9E31D2AE7E11E2AE5D703801F2E01D0CF
:1001B0000BD0D8901B361C361D361E36D890033611
:1001C000023601362036BAD720A006D0D8900132A8
:1001D00002320332203202D0000635E020BE1ED0AB
:1001E000D8901B361C361D361E361A501B5E07E291
:1001F000010E1C5E04E21D5E02E21E5E1AE319504F
:100200001C5E05E2010E1D5E02E21E5E12E3185046
:1002100080091D5E03E2010E1E5E0BE3032A09E165
:10022000022A07E1012A05E1002A0DE0013202322B
:10023000033214C01FF018501F1A1FAE02D0018ED7
:1002400006D0019E04D0006A016A026A036A000CAB
:100250008E0E006E1350005E14C002F015C001F047
:10026000028E005209E0D890025202E1015204E0ED
:1002700002320132002EF7D714AE05D0011E021E45
:10028000012AD8B4022A000CF86AD09EEA6AE96A08
:10029000C180C182C184C196E10E076E0A6A840ED4
:1002A0000B6E480E0C6E0D6A0E6AFF0E926E80CFBA
:1002B00005F00A6A81A00AD0010E0A260E6A0D6AAC
:1002C000200E0C6E820E0B6E01D077D081A20AD068
:1002D000010E0A260E6A0D6A200E0C6E830E0B6E3E
:1002E00001D06BD081A40AD0010E0A260E6A0D6AD5
:1002F000700E0C6E830E0B6E01D05FD081A60AD0FB
:10030000010E0A260E6A0D6A200E0C6E840E0B6E0C
:1003100001D053D081A80AD0010E0A260E6A0D6AB8
:10032000480E0C6E840E0B6E01D047D081AA0AD005
:10033000010E0A260E6A0D6A700E0C6E840E0B6E8C
:1003400001D03BD081AC0AD0010E0A260E6A0D6A9C
:100350000C0E0C6E850E0B6E01D02FD081AE0AD024
:10036000010E0A260E6A0D6A200E0C6E850E0B6EAB
:1003700001D023D082A00AD0010E0A260E6A0D6A8F
:10038000340E0C6E850E0B6E01D017D082A20AD0EF
:10039000010E0A260E6A0D6A480E0C6E850E0B6E53
:1003A0000CD00BD00A50010807E20E6A0D6A0C6AE5
:1003B0007F0E0B6E02D001D000D0055202E10FD0AB
:1003C00013D0052C02D048D00FD00550020802E10E
:1003D00080D00AD00550030802E1B8D005D0000E45
:1003E0000609CA6EF90ECB6E94948B940C0EBD6EFA
:1003F000126A116A790E106E860E0F6E0EC016F01C
:100400000DC015F00CC014F00BC013F0FBDD00C0E4
:100410000FF001C010F002C011F003C012F003C0D1
:1004200016F002C015F001C014F000C013F01A6AF3
:10043000196A480E186E850E176E5DDE03C016F041
:1004400002C015F001C014F000C013F001DF01C0BC
:1004500009F009C0BEFF29D7000E0609CA6E7B0E3F
:10046000CB6E94948B940C0EBD6E126A116A760E4C
:10047000106E850E0F6E0EC016F00DC015F00CC07C
:1004800014F00BC013F0BEDD00C00FF001C010F07F
:1004900002C011F003C012F003C016F002C015F044
:1004A00001C014F000C013F01A6A196A480E186EE1
:1004B000850E176E20DE03C016F002C015F001C0D5
:1004C00014F000C013F0C4DE01C009F009C0BEFF83
:1004D000ECD6000E0509CA6EF90ECB6E94948B947F
:1004E0000C0EBD6E126A116A790E106E860E0F6EBA
:1004F0000EC016F00DC015F00CC014F00BC013F0B8
:1005000081DD00C00FF001C010F002C011F003C087
:1005100012F003C016F002C015F001C014F000C0C4
:1005200013F01A6A196A480E186E850E176EE3DD0D
:1005300003C016F002C015F001C014F000C013F0A3
:1005400087DE01C009F009C0BEFFAFD6000E050965
:10055000CA6E7C0ECB6E94948B940C0EBD6E126A98
:10056000116A780E106E850E0F6E0EC016F00DC05B
:1005700015F00CC014F00BC013F044DD00C00FF0F8
:1005800001C010F002C011F003C012F003C016F059
:1005900002C015F001C014F000C013F01A6A196A05
:1005A000480E186E850E176EA6DD03C016F002C049
:1005B00015F001C014F000C013F04ADE01C009F0CC
:0A05C00009C0BEFF72D671D6030019
:020000040030CA
:0E00000000210E0E000181000FC00FE00F4026
:00000001FF
;PIC18F452
