:020000040000FA
:1000000016EF00F0EA6A070EE96EEF500EE0010EFF
:10001000016E006A002EFED7012EFBD74A0E006E3D
:10002000002EFED700D0EF2EF2D7000CF86AD09E3B
:10003000EA6AE96AC180C182C184C196056A83A067
:100040000AD0056A020E066EFA0E076EDBDF062E78
:10005000FBD712D00DD083A20AD0056A020E066E1D
:10006000FA0E076ECFDF062EFBD714D001D0056A3B
:10007000936A05C08AFFE3D7052A936A05C08AFF01
:10008000130E006E002EFED700D083B002D0D7D75B
:1000900001D0F2D7052A130E006E002EFED700D035
:1000A000936A05C08AFF053C02D006D005D083B212
:1000B00002D0C5D701D0EED70506130E006E002E74
:1000C000FED700D0936A05C08AFF055202E1E2D74D
:0E00D00005D083B202D0B3D701D0EED7030023
:020000040030CA
:0E00000000210E0E000181000FC00FE00F4026
:00000001FF
;PIC18F452
