:020000040000FA
:1000000098EF04F0F76A140FF66E000EF72209005D
:10001000F5501200280C0106F76A280FF66E000E44
:10002000F7220900F550120041647175692E2044D1
:1000300061746120454343490000F76A4A0FF66E38
:10004000000EF7220900F550120074656D70203D16
:100050002025670A0D00EA6A1B0EE96EEF500EE0DC
:10006000010E016E006A002EFED7012EFBD74A0E4C
:10007000006E002EFED700D0EF2EF2D7000C2238F3
:10008000F00B006E0F0E81140010816E0000818055
:1000900000D08190000CF00E936E8184000081806E
:1000A000000081380F0B226E8190000081800000DB
:1000B00081380F0B216E8190000E936E2238006EF6
:1000C000F00E001600502110016E69EF00F08192D1
:1000D000E2D701C021F001BEFBD71FA081921FB063
:1000E000818200008194000081902038216E0F0EE3
:1000F000211621C022F0C3DF20500F0B216E226E8B
:10010000BEDF000C000E936E8192819481900F0EE1
:100110001B6EA1DF010E0C6E0C50030808E3030EEA
:10012000226EADDF050E1B6E96DF0C2AF5D7020E90
:10013000226EA5DF0C6A0C5003080EE3036A0C5014
:10014000F2CF0DF0F29E5EDF0DBEF28E0E6E1F6AD4
:10015000206EBDDF0C2AEFD7A2EF04F08E0E006EEA
:100160000DC001F00CC002F0036A015209E102C0A7
:1001700001F0026A080E005E015202E1006A08D036
:10018000D89001BE04D0023601360006F9D7019E90
:10019000C3EF04F00C50D8B4A5D0186E1050D8B4EA
:1001A000A1D0185E05E37F0E1826D8B09BD006D0EC
:1001B000810E185ED8A096D0D8B494D018C000F0A4
:1001C000016A026A036A176A0DC016F0168E0EC025
:1001D00015F00FC014F0190E186E1350145E0DE2D6
:1001E000010E155E0AE2165E08E2175E06E2172AA5
:1001F000162A152A1350142628D01250155E12E222
:10020000010E165E0FE2175E0DE2172A162A125033
:1002100015261350142619E3152A17E1162A15E19D
:10022000172A13D011508009165E0EE2010E175ED8
:100230000BE2172A11508009162612501526E9E301
:10024000162AE7E1172AE5D70380182E01D00BD034
:10025000D8901436153616361736D890033602362F
:1002600001361936BAD719A006D0D8900132023219
:100270000332193202D0000635E019BE1ED0D890E4
:1002800014361536163617361350145E07E2010E73
:10029000155E04E2165E02E2175E1AE31250155E66
:1002A00005E2010E165E02E2175E12E311508009AC
:1002B000165E03E2010E175E0BE3032A09E1022A30
:1002C00007E1012A05E1002A0DE001320232033282
:1002D0000DC018F01150181A18AE02D0018E06D0B9
:1002E000019E04D0006A016A026A036AD5EF04F035
:1002F0001C2C01D003D0400E1D6E01D01D6A010ED2
:100300001B5C1D261D5080091E6E1F6A206EDFDEDD
:10031000000C1A500C0A05E0060A0BE0020A0FE076
:1003200013D01F6A010E206ED2DE020E1B6E93DE0A
:1003300011D0010E1B6E020E1C6EDADF0BD01F6A8D
:10034000100E206EC4DE06D0010E1F6E1AC020F003
:10035000BEDE00D0000C1A50D8B471D0006E1E5012
:10036000D8B46DD0002604E3810E002668E204D0E4
:100370007F0E005E64E363E01BC022F01F50221A70
:100380001B8E1F8E1D502102F4CF24F01C50200222
:10039000F4CF03F0F3CF23F02102F3502426F450DE
:1003A0002322000E03221D502002F3502426F45075
:1003B0002322000E026A032202221B502102F35064
:1003C0002326F4500322000E02221B502002F35079
:1003D0000326F4500222000E016A01221D501F0262
:1003E000F3502326F4500322000E022201221C5057
:1003F0001F02F3500326F4500222000E01221B506C
:100400001F02F3500226F4500122002A01BE05D03B
:1004100023360336023601360006000E23AE0AD01C
:10042000032A02220122015005E1025003E1035098
:1004300001E1002A22BE018E22AE019E04D0006A94
:10044000016A026A036ACCEF03F0800ED8B21F1A69
:10045000246A256A1BC023F01F50231A1A50D8B4EF
:10046000DCD0226E006E1E50D8B4E0D0225ED8B42C
:1004700081D03DE31FC028F0288E20C027F021C086
:1004800026F0256AD8902832273226322532222EAD
:10049000F8D723AE03D02480DDD024902290248886
:1004A000EA6A1D0EE96EE9D0249823BE0AD022A084
:1004B00013D02832273226322532002AD8B4C5D0AC
:1004C0000BD028BE0CD0D8902536263627362836B5
:1004D0000006D8B4BAD0F5D7248C6BD0249C1BC0AE
:1004E00023F01BAE02D0288EA9D0289EA7D01EC014
:1004F00022F01EC000F01A50225E1BC028F0288E89
:100500001CC027F01DC026F0256AD890283227325B
:1005100026322532222EF8D723AE03D024829AD059
:1005200024922290248AEA6A210EE96EA6D0249AA7
:1005300023BE0AD022A013D02832273226322532F9
:10054000002AD8B482D00BD028BE0CD0D890253643
:100550002636273628360006D8B477D0F5D7248E2D
:1005600028D0249E1FC023F01FAE02D0288E66D054
:10057000289E64D01FC028F0288E20C027F021C0FC
:1005800026F023AE04D0289E248464D02494256AC7
:100590002290EA6A1D0EE96E70D023BE1CD01BC0EB
:1005A00023F022A006D02832273226322532002A14
:1005B0004CE025AE0BD0262A09E1272A07E1282A9C
:1005C00005E1283227322632002A3FE024BC86D7B4
:1005D00024BEC7D71CD0800E281A28AE04D03AD02B
:1005E0001FC023F00AD01BC023F0285206E1275277
:1005F00004E1265202E1006A21D028BE08D0D8903A
:100600002536263627362836002EF7D71ED023AEBD
:1006100002D0288E13D0289E11D01EC000F01FC01B
:1006200028F020C027F021C026F008D01AC000F022
:100630001BC028F01CC027F01DC026F028C001F008
:1006400027C002F026C003F034D0006A016A026AB3
:10065000036A2FD0256A261E271E281E251E252A3E
:1006600005E1262A03E1272A01E1282A24B015D72B
:1006700024B256D724B48AD7B3D7EF50262605E341
:10068000272A03E1282AD8B42280ED52EF502726EA
:1006900003E3282AD8B42280ED52EF50EFBE01D0F8
:1006A000800A2826D8B0228024B8FED624BA3FD7A4
:1006B00074D7EEEF03F01A50B6081A6E036A1BC027
:1006C0001EF01B8ED8901B321C321D3203320232B8
:1006D000013200321A2EF6D71EAE0BD0001E011EBC
:1006E000021E031E002AD8B4012AD8B4022AD8B4A4
:1006F000032AFFEF03F0006A016A026A036A226AB2
:10070000236A246A256A215020101F101E102CE035
:10071000200E266ED8901A361B361C361D36223611
:100720002336243625362150255C08E12050245CF0
:1007300005E11F50235C02E11E50225C0FE31E50B6
:10074000225E1F50D8A01F3C235E2050D8A0203C22
:10075000245E2150D8A0213C255ED8800036013689
:1007600002360336262ED6D7EA6A220EE96E000C30
:10077000E950126E1150146E19E010C01DF00FC038
:100780001CF00EC01BF00DC01AF0216A206A200E6A
:100790001F6E820E1E6EDFD503C010F002C00FF078
:1007A00001C00EF000C00DF0142EE7D77E0E006ED3
:1007B000016A0EBE018E026A036AD89210C01DF053
:1007C0000FC01CF00EC01BF00DC01AF003C021F0CA
:1007D00002C020F001C01FF01E6E37D603C010F01B
:1007E00002C00FF001C00EF000C00DF010C01DF0EF
:1007F0000FC01CF00EC01BF00DC01AF05CD703C078
:1008000010F002C00FF001C00EF000C00DF010AEED
:100810000DD01206128A0D1E0E1E0F1E101E0D2A5E
:10082000D8B40E2AD8B40F2AD8B4102A3B0E196EA9
:100830009A0E186ECA0E176E166A0A0E146E1150B2
:10084000D8B4122A10C01DF00FC01CF00EC01BF04F
:100850000DC01AF019C021F018C020F017C01FF009
:1008600016C01EF048DF0150EFCF0DF0ECCF0EF0B8
:10087000ECCF0FF0ECCF10F000520FE11128145C18
:100880000CE012500CE00F0B145C01E037E212BEDA
:1008900035D012BC04D0200E2DD0200E121612AA74
:1008A0000CD0129A1150D8A412060050126E2D0EC0
:1008B0001A6E2FDD1250006E126A1150145C0AE19C
:1008C0000050126E2E0E1A6E24DD1250006E200E95
:1008D0001216000E300E12AA0DD0129A1150D8A482
:1008E00012060050126E2D0E1A6E13DD1250006E9D
:1008F000126A300E002600C01AF00BDD19C01DF080
:1009000018C01CF017C01BF016C01AF0216A206A2C
:100910001F6A0A0E1E6EEFDE03C019F002C018F047
:1009200001C017F000C016F0142E8CD70AEF05F0A6
:10093000F86AD09EEA6AE96AC180C182C184C19620
:1009400082EF00F0C180C192C184C196C19CC28C6B
:10095000C28EC18EC280000E016EC250C70B011044
:10096000C26E100E006E002EFED70000C284C2B40C
:10097000FED7C3CF06F0C4CF07F007C00DF006C006
:100980000CF0AEEF00F003C00FF002C00EF001C09B
:100990000DF000C00CF09A0E136E990E126E590EE7
:1009A000116E810E106ECAEF00F003C00BF002C092
:1009B0000AF001C009F000C008F0946A06C08BFF7D
:1009C000010E1B6E1C6E94DC0C6A0C500CEC00F0DB
:1009D000000904E00C2A1A6E9CDCF7D7020E1B6E8D
:1009E0001C6E86DC0C6A0C501DEC00F00C2A006EAC
:1009F0001A6E8FDC070E0C5CF6E1890EE96E0BC0F7
:100A000010F00AC00FF009C00EF008C00DF0020E81
:100A1000116EAED60A0E1A6E7CDC0D0E1A6E79DCE3
:100A20000F0E1B6E020E1C6E63DCDF0E1A6E71DC85
:0C0A3000C80E1B6E2BEC00F085D70300F5
:020000040030CA
:0E00000000210E0E000181000FC00FE00F4026
:00000001FF
;PIC18F452
